{
  "_format": "hh-sol-artifact-1",
  "contractName": "FoodShare",
  "sourceName": "contracts/FoodShare.sol",
  "abi": [
    {
      "anonymous": false,
      "inputs": [
        {
          "indexed": true,
          "internalType": "uint256",
          "name": "id",
          "type": "uint256"
        },
        {
          "indexed": true,
          "internalType": "address",
          "name": "donor",
          "type": "address"
        },
        {
          "indexed": true,
          "internalType": "address",
          "name": "receiver",
          "type": "address"
        },
        {
          "indexed": false,
          "internalType": "uint256",
          "name": "claimedAt",
          "type": "uint256"
        }
      ],
      "name": "FoodClaimed",
      "type": "event"
    },
    {
      "anonymous": false,
      "inputs": [
        {
          "indexed": true,
          "internalType": "uint256",
          "name": "id",
          "type": "uint256"
        },
        {
          "indexed": true,
          "internalType": "address",
          "name": "donor",
          "type": "address"
        },
        {
          "indexed": false,
          "internalType": "string",
          "name": "title",
          "type": "string"
        },
        {
          "indexed": false,
          "internalType": "uint256",
          "name": "quantity",
          "type": "uint256"
        },
        {
          "indexed": false,
          "internalType": "uint256",
          "name": "expiry",
          "type": "uint256"
        }
      ],
      "name": "FoodListed",
      "type": "event"
    },
    {
      "inputs": [
        {
          "internalType": "uint256",
          "name": "_listingId",
          "type": "uint256"
        }
      ],
      "name": "claimFood",
      "outputs": [],
      "stateMutability": "nonpayable",
      "type": "function"
    },
    {
      "inputs": [
        {
          "internalType": "address",
          "name": "",
          "type": "address"
        },
        {
          "internalType": "uint256",
          "name": "",
          "type": "uint256"
        }
      ],
      "name": "donorListings",
      "outputs": [
        {
          "internalType": "uint256",
          "name": "",
          "type": "uint256"
        }
      ],
      "stateMutability": "view",
      "type": "function"
    },
    {
      "inputs": [
        {
          "internalType": "uint256",
          "name": "",
          "type": "uint256"
        }
      ],
      "name": "foodListings",
      "outputs": [
        {
          "internalType": "uint256",
          "name": "id",
          "type": "uint256"
        },
        {
          "internalType": "address",
          "name": "donor",
          "type": "address"
        },
        {
          "internalType": "string",
          "name": "title",
          "type": "string"
        },
        {
          "internalType": "string",
          "name": "description",
          "type": "string"
        },
        {
          "internalType": "uint256",
          "name": "quantity",
          "type": "uint256"
        },
        {
          "internalType": "uint256",
          "name": "expiry",
          "type": "uint256"
        },
        {
          "internalType": "string",
          "name": "location",
          "type": "string"
        },
        {
          "internalType": "bool",
          "name": "isClaimed",
          "type": "bool"
        },
        {
          "internalType": "address",
          "name": "claimedBy",
          "type": "address"
        },
        {
          "internalType": "uint256",
          "name": "claimedAt",
          "type": "uint256"
        }
      ],
      "stateMutability": "view",
      "type": "function"
    },
    {
      "inputs": [
        {
          "internalType": "address",
          "name": "_donor",
          "type": "address"
        }
      ],
      "name": "getDonorListings",
      "outputs": [
        {
          "internalType": "uint256[]",
          "name": "",
          "type": "uint256[]"
        }
      ],
      "stateMutability": "view",
      "type": "function"
    },
    {
      "inputs": [
        {
          "internalType": "uint256",
          "name": "_listingId",
          "type": "uint256"
        }
      ],
      "name": "getFoodListing",
      "outputs": [
        {
          "components": [
            {
              "internalType": "uint256",
              "name": "id",
              "type": "uint256"
            },
            {
              "internalType": "address",
              "name": "donor",
              "type": "address"
            },
            {
              "internalType": "string",
              "name": "title",
              "type": "string"
            },
            {
              "internalType": "string",
              "name": "description",
              "type": "string"
            },
            {
              "internalType": "uint256",
              "name": "quantity",
              "type": "uint256"
            },
            {
              "internalType": "uint256",
              "name": "expiry",
              "type": "uint256"
            },
            {
              "internalType": "string",
              "name": "location",
              "type": "string"
            },
            {
              "internalType": "bool",
              "name": "isClaimed",
              "type": "bool"
            },
            {
              "internalType": "address",
              "name": "claimedBy",
              "type": "address"
            },
            {
              "internalType": "uint256",
              "name": "claimedAt",
              "type": "uint256"
            }
          ],
          "internalType": "struct FoodShare.FoodListing",
          "name": "",
          "type": "tuple"
        }
      ],
      "stateMutability": "view",
      "type": "function"
    },
    {
      "inputs": [
        {
          "internalType": "address",
          "name": "_receiver",
          "type": "address"
        }
      ],
      "name": "getReceiverClaims",
      "outputs": [
        {
          "internalType": "uint256[]",
          "name": "",
          "type": "uint256[]"
        }
      ],
      "stateMutability": "view",
      "type": "function"
    },
    {
      "inputs": [],
      "name": "getTotalListings",
      "outputs": [
        {
          "internalType": "uint256",
          "name": "",
          "type": "uint256"
        }
      ],
      "stateMutability": "view",
      "type": "function"
    },
    {
      "inputs": [
        {
          "internalType": "string",
          "name": "_title",
          "type": "string"
        },
        {
          "internalType": "string",
          "name": "_description",
          "type": "string"
        },
        {
          "internalType": "uint256",
          "name": "_quantity",
          "type": "uint256"
        },
        {
          "internalType": "uint256",
          "name": "_expiry",
          "type": "uint256"
        },
        {
          "internalType": "string",
          "name": "_location",
          "type": "string"
        }
      ],
      "name": "listFood",
      "outputs": [
        {
          "internalType": "uint256",
          "name": "",
          "type": "uint256"
        }
      ],
      "stateMutability": "nonpayable",
      "type": "function"
    },
    {
      "inputs": [
        {
          "internalType": "address",
          "name": "",
          "type": "address"
        },
        {
          "internalType": "uint256",
          "name": "",
          "type": "uint256"
        }
      ],
      "name": "receiverClaims",
      "outputs": [
        {
          "internalType": "uint256",
          "name": "",
          "type": "uint256"
        }
      ],
      "stateMutability": "view",
      "type": "function"
    }
  ],
  "bytecode": "0x608060405234801561001057600080fd5b50611ad1806100206000396000f3fe608060405234801561001057600080fd5b50600436106100935760003560e01c8063b93e597e11610066578063b93e597e14610158578063df2fb70b14610174578063eafdd686146101a4578063fbf30c35146101d4578063ffa065be146101f257610093565b8063059a6ec8146100985780631e9c2a2e146100c857806329697cd7146100f857806366a6f8f514610128575b600080fd5b6100b260048036038101906100ad9190610f3f565b61022b565b6040516100bf9190610f8e565b60405180910390f35b6100e260048036038101906100dd9190610fa9565b61025c565b6040516100ef9190611094565b60405180910390f35b610112600480360381019061010d91906111fc565b6102f3565b60405161011f9190610f8e565b60405180910390f35b610142600480360381019061013d9190610f3f565b610581565b60405161014f9190610f8e565b60405180910390f35b610172600480360381019061016d91906112cb565b6105b2565b005b61018e600480360381019061018991906112cb565b61086a565b60405161019b9190611489565b60405180910390f35b6101be60048036038101906101b99190610fa9565b610b3d565b6040516101cb9190611094565b60405180910390f35b6101dc610bd4565b6040516101e99190610f8e565b60405180910390f35b61020c600480360381019061020791906112cb565b610bdd565b6040516102229a99989796959493929190611513565b60405180910390f35b6003602052816000526040600020818154811061024757600080fd5b90600052602060002001600091509150505481565b6060600360008373ffffffffffffffffffffffffffffffffffffffff1673ffffffffffffffffffffffffffffffffffffffff1681526020019081526020016000208054806020026020016040519081016040528092919081815260200182805480156102e757602002820191906000526020600020905b8154815260200190600101908083116102d3575b50505050509050919050565b6000806000815480929190610307906115f3565b919050555060405180610140016040528060005481526020013373ffffffffffffffffffffffffffffffffffffffff168152602001878152602001868152602001858152602001848152602001838152602001600015158152602001600073ffffffffffffffffffffffffffffffffffffffff168152602001600081525060016000805481526020019081526020016000206000820151816000015560208201518160010160006101000a81548173ffffffffffffffffffffffffffffffffffffffff021916908373ffffffffffffffffffffffffffffffffffffffff16021790555060408201518160020190816103ff9190611847565b5060608201518160030190816104159190611847565b506080820151816004015560a0820151816005015560c082015181600601908161043f9190611847565b5060e08201518160070160006101000a81548160ff0219169083151502179055506101008201518160070160016101000a81548173ffffffffffffffffffffffffffffffffffffffff021916908373ffffffffffffffffffffffffffffffffffffffff1602179055506101208201518160080155905050600260003373ffffffffffffffffffffffffffffffffffffffff1673ffffffffffffffffffffffffffffffffffffffff16815260200190815260200160002060005490806001815401808255809150506001900390600052602060002001600090919091909150553373ffffffffffffffffffffffffffffffffffffffff166000547f1b0399424edadbcc5154a78da2baace629c818c5019670e5aa52e92bfeb1a87d88878760405161056b93929190611919565b60405180910390a3600054905095945050505050565b6002602052816000526040600020818154811061059d57600080fd5b90600052602060002001600091509150505481565b600060016000838152602001908152602001600020600001540361060b576040517f08c379a0000000000000000000000000000000000000000000000000000000008152600401610602906119a3565b60405180910390fd5b6001600082815260200190815260200160002060070160009054906101000a900460ff161561066f576040517f08c379a000000000000000000000000000000000000000000000000000000000815260040161066690611a0f565b60405180910390fd5b426001600083815260200190815260200160002060050154116106c7576040517f08c379a00000000000000000000000000000000000000000000000000000000081526004016106be90611a7b565b60405180910390fd5b600180600083815260200190815260200160002060070160006101000a81548160ff021916908315150217905550336001600083815260200190815260200160002060070160016101000a81548173ffffffffffffffffffffffffffffffffffffffff021916908373ffffffffffffffffffffffffffffffffffffffff160217905550426001600083815260200190815260200160002060080181905550600360003373ffffffffffffffffffffffffffffffffffffffff1673ffffffffffffffffffffffffffffffffffffffff1681526020019081526020016000208190806001815401808255809150506001900390600052602060002001600090919091909150553373ffffffffffffffffffffffffffffffffffffffff166001600083815260200190815260200160002060010160009054906101000a900473ffffffffffffffffffffffffffffffffffffffff1673ffffffffffffffffffffffffffffffffffffffff16827f8139fefe5c30e7150186f771179c2012fc8fb46dd6dd6409f03b1997db67081b4260405161085f9190610f8e565b60405180910390a450565b610872610e16565b6001600083815260200190815260200160002060405180610140016040529081600082015481526020016001820160009054906101000a900473ffffffffffffffffffffffffffffffffffffffff1673ffffffffffffffffffffffffffffffffffffffff1673ffffffffffffffffffffffffffffffffffffffff1681526020016002820180546109019061166a565b80601f016020809104026020016040519081016040528092919081815260200182805461092d9061166a565b801561097a5780601f1061094f5761010080835404028352916020019161097a565b820191906000526020600020905b81548152906001019060200180831161095d57829003601f168201915b505050505081526020016003820180546109939061166a565b80601f01602080910402602001604051908101604052809291908181526020018280546109bf9061166a565b8015610a0c5780601f106109e157610100808354040283529160200191610a0c565b820191906000526020600020905b8154815290600101906020018083116109ef57829003601f168201915b505050505081526020016004820154815260200160058201548152602001600682018054610a399061166a565b80601f0160208091040260200160405190810160405280929190818152602001828054610a659061166a565b8015610ab25780601f10610a8757610100808354040283529160200191610ab2565b820191906000526020600020905b815481529060010190602001808311610a9557829003601f168201915b505050505081526020016007820160009054906101000a900460ff161515151581526020016007820160019054906101000a900473ffffffffffffffffffffffffffffffffffffffff1673ffffffffffffffffffffffffffffffffffffffff1673ffffffffffffffffffffffffffffffffffffffff1681526020016008820154815250509050919050565b6060600260008373ffffffffffffffffffffffffffffffffffffffff1673ffffffffffffffffffffffffffffffffffffffff168152602001908152602001600020805480602002602001604051908101604052809291908181526020018280548015610bc857602002820191906000526020600020905b815481526020019060010190808311610bb4575b50505050509050919050565b60008054905090565b60016020528060005260406000206000915090508060000154908060010160009054906101000a900473ffffffffffffffffffffffffffffffffffffffff1690806002018054610c2c9061166a565b80601f0160208091040260200160405190810160405280929190818152602001828054610c589061166a565b8015610ca55780601f10610c7a57610100808354040283529160200191610ca5565b820191906000526020600020905b815481529060010190602001808311610c8857829003601f168201915b505050505090806003018054610cba9061166a565b80601f0160208091040260200160405190810160405280929190818152602001828054610ce69061166a565b8015610d335780601f10610d0857610100808354040283529160200191610d33565b820191906000526020600020905b815481529060010190602001808311610d1657829003601f168201915b505050505090806004015490806005015490806006018054610d549061166a565b80601f0160208091040260200160405190810160405280929190818152602001828054610d809061166a565b8015610dcd5780601f10610da257610100808354040283529160200191610dcd565b820191906000526020600020905b815481529060010190602001808311610db057829003601f168201915b5050505050908060070160009054906101000a900460ff16908060070160019054906101000a900473ffffffffffffffffffffffffffffffffffffffff1690806008015490508a565b60405180610140016040528060008152602001600073ffffffffffffffffffffffffffffffffffffffff1681526020016060815260200160608152602001600081526020016000815260200160608152602001600015158152602001600073ffffffffffffffffffffffffffffffffffffffff168152602001600081525090565b6000604051905090565b600080fd5b600080fd5b600073ffffffffffffffffffffffffffffffffffffffff82169050919050565b6000610ed682610eab565b9050919050565b610ee681610ecb565b8114610ef157600080fd5b50565b600081359050610f0381610edd565b92915050565b6000819050919050565b610f1c81610f09565b8114610f2757600080fd5b50565b600081359050610f3981610f13565b92915050565b60008060408385031215610f5657610f55610ea1565b5b6000610f6485828601610ef4565b9250506020610f7585828601610f2a565b9150509250929050565b610f8881610f09565b82525050565b6000602082019050610fa36000830184610f7f565b92915050565b600060208284031215610fbf57610fbe610ea1565b5b6000610fcd84828501610ef4565b91505092915050565b600081519050919050565b600082825260208201905092915050565b6000819050602082019050919050565b61100b81610f09565b82525050565b600061101d8383611002565b60208301905092915050565b6000602082019050919050565b600061104182610fd6565b61104b8185610fe1565b935061105683610ff2565b8060005b8381101561108757815161106e8882611011565b975061107983611029565b92505060018101905061105a565b5085935050505092915050565b600060208201905081810360008301526110ae8184611036565b905092915050565b600080fd5b600080fd5b6000601f19601f8301169050919050565b7f4e487b7100000000000000000000000000000000000000000000000000000000600052604160045260246000fd5b611109826110c0565b810181811067ffffffffffffffff82111715611128576111276110d1565b5b80604052505050565b600061113b610e97565b90506111478282611100565b919050565b600067ffffffffffffffff821115611167576111666110d1565b5b611170826110c0565b9050602081019050919050565b82818337600083830152505050565b600061119f61119a8461114c565b611131565b9050828152602081018484840111156111bb576111ba6110bb565b5b6111c684828561117d565b509392505050565b600082601f8301126111e3576111e26110b6565b5b81356111f384826020860161118c565b91505092915050565b600080600080600060a0868803121561121857611217610ea1565b5b600086013567ffffffffffffffff81111561123657611235610ea6565b5b611242888289016111ce565b955050602086013567ffffffffffffffff81111561126357611262610ea6565b5b61126f888289016111ce565b945050604061128088828901610f2a565b935050606061129188828901610f2a565b925050608086013567ffffffffffffffff8111156112b2576112b1610ea6565b5b6112be888289016111ce565b9150509295509295909350565b6000602082840312156112e1576112e0610ea1565b5b60006112ef84828501610f2a565b91505092915050565b61130181610ecb565b82525050565b600081519050919050565b600082825260208201905092915050565b60005b83811015611341578082015181840152602081019050611326565b60008484015250505050565b600061135882611307565b6113628185611312565b9350611372818560208601611323565b61137b816110c0565b840191505092915050565b60008115159050919050565b61139b81611386565b82525050565b6000610140830160008301516113ba6000860182611002565b5060208301516113cd60208601826112f8565b50604083015184820360408601526113e5828261134d565b915050606083015184820360608601526113ff828261134d565b91505060808301516114146080860182611002565b5060a083015161142760a0860182611002565b5060c083015184820360c086015261143f828261134d565b91505060e083015161145460e0860182611392565b506101008301516114696101008601826112f8565b5061012083015161147e610120860182611002565b508091505092915050565b600060208201905081810360008301526114a381846113a1565b905092915050565b6114b481610ecb565b82525050565b600082825260208201905092915050565b60006114d682611307565b6114e081856114ba565b93506114f0818560208601611323565b6114f9816110c0565b840191505092915050565b61150d81611386565b82525050565b600061014082019050611529600083018d610f7f565b611536602083018c6114ab565b8181036040830152611548818b6114cb565b9050818103606083015261155c818a6114cb565b905061156b6080830189610f7f565b61157860a0830188610f7f565b81810360c083015261158a81876114cb565b905061159960e0830186611504565b6115a76101008301856114ab565b6115b5610120830184610f7f565b9b9a5050505050505050505050565b7f4e487b7100000000000000000000000000000000000000000000000000000000600052601160045260246000fd5b60006115fe82610f09565b91507fffffffffffffffffffffffffffffffffffffffffffffffffffffffffffffffff82036116305761162f6115c4565b5b600182019050919050565b7f4e487b7100000000000000000000000000000000000000000000000000000000600052602260045260246000fd5b6000600282049050600182168061168257607f821691505b6020821081036116955761169461163b565b5b50919050565b60008190508160005260206000209050919050565b60006020601f8301049050919050565b600082821b905092915050565b6000600883026116fd7fffffffffffffffffffffffffffffffffffffffffffffffffffffffffffffffff826116c0565b61170786836116c0565b95508019841693508086168417925050509392505050565b6000819050919050565b600061174461173f61173a84610f09565b61171f565b610f09565b9050919050565b6000819050919050565b61175e83611729565b61177261176a8261174b565b8484546116cd565b825550505050565b600090565b61178761177a565b611792818484611755565b505050565b5b818110156117b6576117ab60008261177f565b600181019050611798565b5050565b601f8211156117fb576117cc8161169b565b6117d5846116b0565b810160208510156117e4578190505b6117f86117f0856116b0565b830182611797565b50505b505050565b600082821c905092915050565b600061181e60001984600802611800565b1980831691505092915050565b6000611837838361180d565b9150826002028217905092915050565b61185082611307565b67ffffffffffffffff811115611869576118686110d1565b5b611873825461166a565b61187e8282856117ba565b600060209050601f8311600181146118b1576000841561189f578287015190505b6118a9858261182b565b865550611911565b601f1984166118bf8661169b565b60005b828110156118e7578489015182556001820191506020850194506020810190506118c2565b868310156119045784890151611900601f89168261180d565b8355505b6001600288020188555050505b505050505050565b6000606082019050818103600083015261193381866114cb565b90506119426020830185610f7f565b61194f6040830184610f7f565b949350505050565b7f4c697374696e6720646f6573206e6f7420657869737400000000000000000000600082015250565b600061198d6016836114ba565b915061199882611957565b602082019050919050565b600060208201905081810360008301526119bc81611980565b9050919050565b7f466f6f6420616c726561647920636c61696d6564000000000000000000000000600082015250565b60006119f96014836114ba565b9150611a04826119c3565b602082019050919050565b60006020820190508181036000830152611a28816119ec565b9050919050565b7f466f6f6420686173206578706972656400000000000000000000000000000000600082015250565b6000611a656010836114ba565b9150611a7082611a2f565b602082019050919050565b60006020820190508181036000830152611a9481611a58565b905091905056fea2646970667358221220975720d76678d758cca53322074571126b3f0de614f007e20098335287abb76c64736f6c63430008130033",
  "linkReferences": {},
  "deployedLinkReferences": {}
}